{
  "_format": "hh-sol-artifact-1",
  "contractName": "MeowsDAO",
  "sourceName": "contracts/Whiskers/MeowsDAO.sol",
  "abi": [
    {
      "inputs": [
        {
          "internalType": "string",
          "name": "name",
          "type": "string"
        },
        {
          "internalType": "string",
          "name": "symbol",
          "type": "string"
        },
        {
          "internalType": "uint256",
          "name": "maxNftSupply",
          "type": "uint256"
        },
        {
          "internalType": "uint256",
          "name": "saleStart",
          "type": "uint256"
        }
      ],
      "stateMutability": "nonpayable",
      "type": "constructor"
    },
    {
      "anonymous": false,
      "inputs": [
        {
          "indexed": true,
          "internalType": "address",
          "name": "owner",
          "type": "address"
        },
        {
          "indexed": true,
          "internalType": "address",
          "name": "approved",
          "type": "address"
        },
        {
          "indexed": true,
          "internalType": "uint256",
          "name": "tokenId",
          "type": "uint256"
        }
      ],
      "name": "Approval",
      "type": "event"
    },
    {
      "anonymous": false,
      "inputs": [
        {
          "indexed": true,
          "internalType": "address",
          "name": "owner",
          "type": "address"
        },
        {
          "indexed": true,
          "internalType": "address",
          "name": "operator",
          "type": "address"
        },
        {
          "indexed": false,
          "internalType": "bool",
          "name": "approved",
          "type": "bool"
        }
      ],
      "name": "ApprovalForAll",
      "type": "event"
    },
    {
      "anonymous": false,
      "inputs": [
        {
          "indexed": true,
          "internalType": "address",
          "name": "previousOwner",
          "type": "address"
        },
        {
          "indexed": true,
          "internalType": "address",
          "name": "newOwner",
          "type": "address"
        }
      ],
      "name": "OwnershipTransferred",
      "type": "event"
    },
    {
      "anonymous": false,
      "inputs": [
        {
          "indexed": true,
          "internalType": "address",
          "name": "from",
          "type": "address"
        },
        {
          "indexed": true,
          "internalType": "address",
          "name": "to",
          "type": "address"
        },
        {
          "indexed": true,
          "internalType": "uint256",
          "name": "tokenId",
          "type": "uint256"
        }
      ],
      "name": "Transfer",
      "type": "event"
    },
    {
      "inputs": [],
      "name": "MAX_KITTY_ALLOWANCE",
      "outputs": [
        {
          "internalType": "uint256",
          "name": "",
          "type": "uint256"
        }
      ],
      "stateMutability": "view",
      "type": "function"
    },
    {
      "inputs": [],
      "name": "MAX_TOTAL_KITTIES",
      "outputs": [
        {
          "internalType": "uint256",
          "name": "",
          "type": "uint256"
        }
      ],
      "stateMutability": "view",
      "type": "function"
    },
    {
      "inputs": [],
      "name": "OPENSEA_STORE_METADATA",
      "outputs": [
        {
          "internalType": "string",
          "name": "",
          "type": "string"
        }
      ],
      "stateMutability": "view",
      "type": "function"
    },
    {
      "inputs": [],
      "name": "PER_KITTY_PRICE",
      "outputs": [
        {
          "internalType": "uint256",
          "name": "",
          "type": "uint256"
        }
      ],
      "stateMutability": "view",
      "type": "function"
    },
    {
      "inputs": [],
      "name": "PROVENANCE",
      "outputs": [
        {
          "internalType": "string",
          "name": "",
          "type": "string"
        }
      ],
      "stateMutability": "view",
      "type": "function"
    },
    {
      "inputs": [],
      "name": "REVEAL_TIMESTAMP",
      "outputs": [
        {
          "internalType": "uint256",
          "name": "",
          "type": "uint256"
        }
      ],
      "stateMutability": "view",
      "type": "function"
    },
    {
      "inputs": [
        {
          "internalType": "uint256",
          "name": "numberOfTokens",
          "type": "uint256"
        }
      ],
      "name": "adoptKittyCats",
      "outputs": [],
      "stateMutability": "payable",
      "type": "function"
    },
    {
      "inputs": [
        {
          "internalType": "address",
          "name": "to",
          "type": "address"
        },
        {
          "internalType": "uint256",
          "name": "tokenId",
          "type": "uint256"
        }
      ],
      "name": "approve",
      "outputs": [],
      "stateMutability": "nonpayable",
      "type": "function"
    },
    {
      "inputs": [
        {
          "internalType": "address",
          "name": "owner",
          "type": "address"
        }
      ],
      "name": "balanceOf",
      "outputs": [
        {
          "internalType": "uint256",
          "name": "",
          "type": "uint256"
        }
      ],
      "stateMutability": "view",
      "type": "function"
    },
    {
      "inputs": [],
      "name": "baseURI",
      "outputs": [
        {
          "internalType": "string",
          "name": "",
          "type": "string"
        }
      ],
      "stateMutability": "view",
      "type": "function"
    },
    {
      "inputs": [],
      "name": "contractURI",
      "outputs": [
        {
          "internalType": "string",
          "name": "",
          "type": "string"
        }
      ],
      "stateMutability": "view",
      "type": "function"
    },
    {
      "inputs": [],
      "name": "emergencySetStartingIndexBlock",
      "outputs": [],
      "stateMutability": "nonpayable",
      "type": "function"
    },
    {
      "inputs": [],
      "name": "flipSaleState",
      "outputs": [],
      "stateMutability": "nonpayable",
      "type": "function"
    },
    {
      "inputs": [
        {
          "internalType": "uint256",
          "name": "tokenId",
          "type": "uint256"
        }
      ],
      "name": "getApproved",
      "outputs": [
        {
          "internalType": "address",
          "name": "",
          "type": "address"
        }
      ],
      "stateMutability": "view",
      "type": "function"
    },
    {
      "inputs": [
        {
          "internalType": "address",
          "name": "owner",
          "type": "address"
        },
        {
          "internalType": "address",
          "name": "operator",
          "type": "address"
        }
      ],
      "name": "isApprovedForAll",
      "outputs": [
        {
          "internalType": "bool",
          "name": "",
          "type": "bool"
        }
      ],
      "stateMutability": "view",
      "type": "function"
    },
    {
      "inputs": [],
      "name": "name",
      "outputs": [
        {
          "internalType": "string",
          "name": "",
          "type": "string"
        }
      ],
      "stateMutability": "view",
      "type": "function"
    },
    {
      "inputs": [],
      "name": "owner",
      "outputs": [
        {
          "internalType": "address",
          "name": "",
          "type": "address"
        }
      ],
      "stateMutability": "view",
      "type": "function"
    },
    {
      "inputs": [
        {
          "internalType": "uint256",
          "name": "tokenId",
          "type": "uint256"
        }
      ],
      "name": "ownerOf",
      "outputs": [
        {
          "internalType": "address",
          "name": "",
          "type": "address"
        }
      ],
      "stateMutability": "view",
      "type": "function"
    },
    {
      "inputs": [],
      "name": "renounceOwnership",
      "outputs": [],
      "stateMutability": "nonpayable",
      "type": "function"
    },
    {
      "inputs": [],
      "name": "reserveKittyCats",
      "outputs": [],
      "stateMutability": "nonpayable",
      "type": "function"
    },
    {
      "inputs": [
        {
          "internalType": "address",
          "name": "from",
          "type": "address"
        },
        {
          "internalType": "address",
          "name": "to",
          "type": "address"
        },
        {
          "internalType": "uint256",
          "name": "tokenId",
          "type": "uint256"
        }
      ],
      "name": "safeTransferFrom",
      "outputs": [],
      "stateMutability": "nonpayable",
      "type": "function"
    },
    {
      "inputs": [
        {
          "internalType": "address",
          "name": "from",
          "type": "address"
        },
        {
          "internalType": "address",
          "name": "to",
          "type": "address"
        },
        {
          "internalType": "uint256",
          "name": "tokenId",
          "type": "uint256"
        },
        {
          "internalType": "bytes",
          "name": "_data",
          "type": "bytes"
        }
      ],
      "name": "safeTransferFrom",
      "outputs": [],
      "stateMutability": "nonpayable",
      "type": "function"
    },
    {
      "inputs": [],
      "name": "saleIsActive",
      "outputs": [
        {
          "internalType": "bool",
          "name": "",
          "type": "bool"
        }
      ],
      "stateMutability": "view",
      "type": "function"
    },
    {
      "inputs": [
        {
          "internalType": "address",
          "name": "operator",
          "type": "address"
        },
        {
          "internalType": "bool",
          "name": "approved",
          "type": "bool"
        }
      ],
      "name": "setApprovalForAll",
      "outputs": [],
      "stateMutability": "nonpayable",
      "type": "function"
    },
    {
      "inputs": [
        {
          "internalType": "string",
          "name": "baseURI",
          "type": "string"
        }
      ],
      "name": "setBaseURI",
      "outputs": [],
      "stateMutability": "nonpayable",
      "type": "function"
    },
    {
      "inputs": [
        {
          "internalType": "string",
          "name": "_contractMetadataURI",
          "type": "string"
        }
      ],
      "name": "setContractURI",
      "outputs": [],
      "stateMutability": "nonpayable",
      "type": "function"
    },
    {
      "inputs": [
        {
          "internalType": "string",
          "name": "provenanceHash",
          "type": "string"
        }
      ],
      "name": "setProvenanceHash",
      "outputs": [],
      "stateMutability": "nonpayable",
      "type": "function"
    },
    {
      "inputs": [
        {
          "internalType": "uint256",
          "name": "revealTimeStamp",
          "type": "uint256"
        }
      ],
      "name": "setRevealTimestamp",
      "outputs": [],
      "stateMutability": "nonpayable",
      "type": "function"
    },
    {
      "inputs": [],
      "name": "setStartingIndex",
      "outputs": [],
      "stateMutability": "nonpayable",
      "type": "function"
    },
    {
      "inputs": [],
      "name": "startingIndex",
      "outputs": [
        {
          "internalType": "uint256",
          "name": "",
          "type": "uint256"
        }
      ],
      "stateMutability": "view",
      "type": "function"
    },
    {
      "inputs": [],
      "name": "startingIndexBlock",
      "outputs": [
        {
          "internalType": "uint256",
          "name": "",
          "type": "uint256"
        }
      ],
      "stateMutability": "view",
      "type": "function"
    },
    {
      "inputs": [
        {
          "internalType": "bytes4",
          "name": "interfaceId",
          "type": "bytes4"
        }
      ],
      "name": "supportsInterface",
      "outputs": [
        {
          "internalType": "bool",
          "name": "",
          "type": "bool"
        }
      ],
      "stateMutability": "view",
      "type": "function"
    },
    {
      "inputs": [],
      "name": "symbol",
      "outputs": [
        {
          "internalType": "string",
          "name": "",
          "type": "string"
        }
      ],
      "stateMutability": "view",
      "type": "function"
    },
    {
      "inputs": [
        {
          "internalType": "uint256",
          "name": "index",
          "type": "uint256"
        }
      ],
      "name": "tokenByIndex",
      "outputs": [
        {
          "internalType": "uint256",
          "name": "",
          "type": "uint256"
        }
      ],
      "stateMutability": "view",
      "type": "function"
    },
    {
      "inputs": [
        {
          "internalType": "address",
          "name": "owner",
          "type": "address"
        },
        {
          "internalType": "uint256",
          "name": "index",
          "type": "uint256"
        }
      ],
      "name": "tokenOfOwnerByIndex",
      "outputs": [
        {
          "internalType": "uint256",
          "name": "",
          "type": "uint256"
        }
      ],
      "stateMutability": "view",
      "type": "function"
    },
    {
      "inputs": [
        {
          "internalType": "uint256",
          "name": "tokenId",
          "type": "uint256"
        }
      ],
      "name": "tokenURI",
      "outputs": [
        {
          "internalType": "string",
          "name": "",
          "type": "string"
        }
      ],
      "stateMutability": "view",
      "type": "function"
    },
    {
      "inputs": [],
      "name": "totalSupply",
      "outputs": [
        {
          "internalType": "uint256",
          "name": "",
          "type": "uint256"
        }
      ],
      "stateMutability": "view",
      "type": "function"
    },
    {
      "inputs": [
        {
          "internalType": "address",
          "name": "from",
          "type": "address"
        },
        {
          "internalType": "address",
          "name": "to",
          "type": "address"
        },
        {
          "internalType": "uint256",
          "name": "tokenId",
          "type": "uint256"
        }
      ],
      "name": "transferFrom",
      "outputs": [],
      "stateMutability": "nonpayable",
      "type": "function"
    },
    {
      "inputs": [
        {
          "internalType": "address",
          "name": "newOwner",
          "type": "address"
        }
      ],
      "name": "transferOwnership",
      "outputs": [],
      "stateMutability": "nonpayable",
      "type": "function"
    },
    {
      "inputs": [],
      "name": "withdraw",
      "outputs": [],
      "stateMutability": "nonpayable",
      "type": "function"
    }
  ],
  "bytecode": "0x600a805460ff60a01b1916905560e06040908152608081815290620033a160a03980516200003691600b9160209091019062000382565b506040518060800160405280604281526020016200335f6042913980516200006791600c9160209091019062000382565b503480156200007557600080fd5b50604051620033e1380380620033e1833981810160405260808110156200009b57600080fd5b8101908080516040519392919084640100000000821115620000bc57600080fd5b908301906020820185811115620000d257600080fd5b8251640100000000811182820188101715620000ed57600080fd5b82525081516020918201929091019080838360005b838110156200011c57818101518382015260200162000102565b50505050905090810190601f1680156200014a5780820380516001836020036101000a031916815260200191505b50604052602001805160405193929190846401000000008211156200016e57600080fd5b9083019060208201858111156200018457600080fd5b82516401000000008111828201881017156200019f57600080fd5b82525081516020918201929091019080838360005b83811015620001ce578181015183820152602001620001b4565b50505050905090810190601f168015620001fc5780820380516001836020036101000a031916815260200191505b506040908152602082015191015190925090508383620002236301ffc9a760e01b620002f9565b81516200023890600690602085019062000382565b5080516200024e90600790602084019062000382565b50620002616380ac58cd60e01b620002f9565b62000273635b5e139f60e01b620002f9565b6200028563780e9d6360e01b620002f9565b5060009050620002946200037e565b600a80546001600160a01b0319166001600160a01b038316908117909155604051919250906000907f8be0079c531659141344cd1fd0a4f28419497f9722a3daafe3b4186f6b6457e0908290a350600d919091556206978001600e55506200041e9050565b6001600160e01b0319808216141562000359576040805162461bcd60e51b815260206004820152601c60248201527f4552433136353a20696e76616c696420696e7465726661636520696400000000604482015290519081900360640190fd5b6001600160e01b0319166000908152602081905260409020805460ff19166001179055565b3390565b828054600181600116156101000203166002900490600052602060002090601f016020900481019282601f10620003c557805160ff1916838001178555620003f5565b82800160010185558215620003f5579182015b82811115620003f5578251825591602001919060010190620003d8565b506200040392915062000407565b5090565b5b8082111562000403576000815560010162000408565b612f31806200042e6000396000f3fe6080604052600436106102bb5760003560e01c80636c0360eb1161016e578063c31a32e3116100cb578063e8a3d4851161007f578063e986655011610064578063e986655014610ab8578063eb8d244414610acd578063f2fde38b14610ae2576102bb565b8063e8a3d48514610a68578063e985e9c514610a7d576102bb565b8063cb774d47116100b0578063cb774d4714610a21578063ce0400c414610a36578063e36d649814610a53576102bb565b8063c31a32e3146109e2578063c87b56dd146109f7576102bb565b8063938e3d7b11610122578063a2224bdd11610107578063a2224bdd146108bf578063a22cb465146108d4578063b88d4fde1461090f576102bb565b8063938e3d7b146107f757806395d89b41146108aa576102bb565b8063715018a611610153578063715018a6146107b85780637d17fcbe146107cd5780638da5cb5b146107e2576102bb565b80636c0360eb1461077057806370a0823114610785576102bb565b806323b872dd1161021c57806342842e0e116101d057806355f804b3116101b557806355f804b31461067e5780636352211e146107315780636373a6b11461075b576102bb565b806342842e0e146106115780634f6ccce714610654576102bb565b80632f745c59116102015780632f745c59146105ae57806334918dfd146105e75780633ccfd60b146105fc576102bb565b806323b872dd146105565780632a0e80c414610599576102bb565b8063081812fc116102735780631096952311610258578063109695231461047957806318160ddd1461052c57806318e20a3814610541576102bb565b8063081812fc146103fa578063095ea7b314610440576102bb565b80630337bb60116102a45780630337bb601461033457806306fdde031461035b578063079993c5146103e5576102bb565b8063018a2c37146102c057806301ffc9a7146102ec575b600080fd5b3480156102cc57600080fd5b506102ea600480360360208110156102e357600080fd5b5035610b15565b005b3480156102f857600080fd5b506103206004803603602081101561030f57600080fd5b50356001600160e01b031916610b7c565b604080519115158252519081900360200190f35b34801561034057600080fd5b50610349610b9f565b60408051918252519081900360200190f35b34801561036757600080fd5b50610370610ba4565b6040805160208082528351818301528351919283929083019185019080838360005b838110156103aa578181015183820152602001610392565b50505050905090810190601f1680156103d75780820380516001836020036101000a031916815260200191505b509250505060405180910390f35b3480156103f157600080fd5b50610370610c3a565b34801561040657600080fd5b506104246004803603602081101561041d57600080fd5b5035610cc8565b604080516001600160a01b039092168252519081900360200190f35b34801561044c57600080fd5b506102ea6004803603604081101561046357600080fd5b506001600160a01b038135169060200135610d2a565b34801561048557600080fd5b506102ea6004803603602081101561049c57600080fd5b8101906020810181356401000000008111156104b757600080fd5b8201836020820111156104c957600080fd5b803590602001918460018302840111640100000000831117156104eb57600080fd5b91908080601f016020809104026020016040519081016040528093929190818152602001838380828437600092019190915250929550610e05945050505050565b34801561053857600080fd5b50610349610ed0565b34801561054d57600080fd5b50610349610ee1565b34801561056257600080fd5b506102ea6004803603606081101561057957600080fd5b506001600160a01b03813581169160208101359091169060400135610ee7565b3480156105a557600080fd5b506102ea610f3e565b3480156105ba57600080fd5b50610349600480360360408110156105d157600080fd5b506001600160a01b038135169060200135610fcc565b3480156105f357600080fd5b506102ea610ff7565b34801561060857600080fd5b506102ea611095565b34801561061d57600080fd5b506102ea6004803603606081101561063457600080fd5b506001600160a01b03813581169160208101359091169060400135611126565b34801561066057600080fd5b506103496004803603602081101561067757600080fd5b5035611141565b34801561068a57600080fd5b506102ea600480360360208110156106a157600080fd5b8101906020810181356401000000008111156106bc57600080fd5b8201836020820111156106ce57600080fd5b803590602001918460018302840111640100000000831117156106f057600080fd5b91908080601f016020809104026020016040519081016040528093929190818152602001838380828437600092019190915250929550611157945050505050565b34801561073d57600080fd5b506104246004803603602081101561075457600080fd5b50356111c5565b34801561076757600080fd5b506103706111ed565b34801561077c57600080fd5b50610370611248565b34801561079157600080fd5b50610349600480360360208110156107a857600080fd5b50356001600160a01b03166112a9565b3480156107c457600080fd5b506102ea611311565b3480156107d957600080fd5b506102ea6113ca565b3480156107ee57600080fd5b50610424611487565b34801561080357600080fd5b506102ea6004803603602081101561081a57600080fd5b81019060208101813564010000000081111561083557600080fd5b82018360208201111561084757600080fd5b8035906020019184600183028401116401000000008311171561086957600080fd5b91908080601f016020809104026020016040519081016040528093929190818152602001838380828437600092019190915250929550611496945050505050565b3480156108b657600080fd5b5061037061150b565b3480156108cb57600080fd5b5061034961156c565b3480156108e057600080fd5b506102ea600480360360408110156108f757600080fd5b506001600160a01b0381351690602001351515611577565b34801561091b57600080fd5b506102ea6004803603608081101561093257600080fd5b6001600160a01b0382358116926020810135909116916040820135919081019060808101606082013564010000000081111561096d57600080fd5b82018360208201111561097f57600080fd5b803590602001918460018302840111640100000000831117156109a157600080fd5b91908080601f01602080910402602001604051908101604052809392919081815260200183838082843760009201919091525092955061167c945050505050565b3480156109ee57600080fd5b506103496116da565b348015610a0357600080fd5b5061037060048036036020811015610a1a57600080fd5b50356116e0565b348015610a2d57600080fd5b50610349611963565b6102ea60048036036020811015610a4c57600080fd5b5035611969565b348015610a5f57600080fd5b50610349611b14565b348015610a7457600080fd5b50610370611b1a565b348015610a8957600080fd5b5061032060048036036040811015610aa057600080fd5b506001600160a01b0381358116916020013516611b7b565b348015610ac457600080fd5b506102ea611ba9565b348015610ad957600080fd5b50610320611cab565b348015610aee57600080fd5b506102ea60048036036020811015610b0557600080fd5b50356001600160a01b0316611cbb565b610b1d611dcb565b6001600160a01b0316610b2e611487565b6001600160a01b031614610b77576040805162461bcd60e51b81526020600482018190526024820152600080516020612e2e833981519152604482015290519081900360640190fd5b600e55565b6001600160e01b0319811660009081526020819052604090205460ff165b919050565b601981565b60068054604080516020601f6002600019610100600188161502019095169490940493840181900481028201810190925282815260609390929091830182828015610c305780601f10610c0557610100808354040283529160200191610c30565b820191906000526020600020905b815481529060010190602001808311610c1357829003601f168201915b5050505050905090565b600c805460408051602060026001851615610100026000190190941693909304601f81018490048402820184019092528181529291830182828015610cc05780601f10610c9557610100808354040283529160200191610cc0565b820191906000526020600020905b815481529060010190602001808311610ca357829003601f168201915b505050505081565b6000610cd382611dcf565b610d0e5760405162461bcd60e51b815260040180806020018281038252602c815260200180612e02602c913960400191505060405180910390fd5b506000908152600460205260409020546001600160a01b031690565b6000610d35826111c5565b9050806001600160a01b0316836001600160a01b03161415610d885760405162461bcd60e51b8152600401808060200182810382526021815260200180612ea66021913960400191505060405180910390fd5b806001600160a01b0316610d9a611dcb565b6001600160a01b03161480610dbb5750610dbb81610db6611dcb565b611b7b565b610df65760405162461bcd60e51b8152600401808060200182810382526038815260200180612ce36038913960400191505060405180910390fd5b610e008383611ddc565b505050565b610e0d611dcb565b6001600160a01b0316610e1e611487565b6001600160a01b031614610e67576040805162461bcd60e51b81526020600482018190526024820152600080516020612e2e833981519152604482015290519081900360640190fd5b600b546002600019610100600184161502019091160415610eb95760405162461bcd60e51b815260040180806020018281038252602d815260200180612ef8602d913960400191505060405180910390fd5b8051610ecc90600b906020840190612b5d565b5050565b6000610edc6002611e57565b905090565b600e5481565b610ef8610ef2611dcb565b82611e62565b610f335760405162461bcd60e51b8152600401808060200182810382526031815260200180612ec76031913960400191505060405180910390fd5b610e00838383611f06565b610f46611dcb565b6001600160a01b0316610f57611487565b6001600160a01b031614610fa0576040805162461bcd60e51b81526020600482018190526024820152600080516020612e2e833981519152604482015290519081900360640190fd5b6000610faa610ed0565b905060005b6019811015610ecc57610fc433828401612052565b600101610faf565b6001600160a01b0382166000908152600160205260408120610fee908361206c565b90505b92915050565b610fff611dcb565b6001600160a01b0316611010611487565b6001600160a01b031614611059576040805162461bcd60e51b81526020600482018190526024820152600080516020612e2e833981519152604482015290519081900360640190fd5b600a80547fffffffffffffffffffffff00ffffffffffffffffffffffffffffffffffffffff8116600160a01b9182900460ff1615909102179055565b61109d611dcb565b6001600160a01b03166110ae611487565b6001600160a01b0316146110f7576040805162461bcd60e51b81526020600482018190526024820152600080516020612e2e833981519152604482015290519081900360640190fd5b6040514790339082156108fc029083906000818181858888f19350505050158015610ecc573d6000803e3d6000fd5b610e008383836040518060200160405280600081525061167c565b60008061114f600284612078565b509392505050565b61115f611dcb565b6001600160a01b0316611170611487565b6001600160a01b0316146111b9576040805162461bcd60e51b81526020600482018190526024820152600080516020612e2e833981519152604482015290519081900360640190fd5b6111c281612094565b50565b6000610ff182604051806060016040528060298152602001612d4560299139600291906120a7565b600b805460408051602060026001851615610100026000190190941693909304601f81018490048402820184019092528181529291830182828015610cc05780601f10610c9557610100808354040283529160200191610cc0565b60098054604080516020601f6002600019610100600188161502019095169490940493840181900481028201810190925282815260609390929091830182828015610c305780601f10610c0557610100808354040283529160200191610c30565b60006001600160a01b0382166112f05760405162461bcd60e51b815260040180806020018281038252602a815260200180612d1b602a913960400191505060405180910390fd5b6001600160a01b0382166000908152600160205260409020610ff190611e57565b611319611dcb565b6001600160a01b031661132a611487565b6001600160a01b031614611373576040805162461bcd60e51b81526020600482018190526024820152600080516020612e2e833981519152604482015290519081900360640190fd5b600a546040516000916001600160a01b0316907f8be0079c531659141344cd1fd0a4f28419497f9722a3daafe3b4186f6b6457e0908390a3600a805473ffffffffffffffffffffffffffffffffffffffff19169055565b6113d2611dcb565b6001600160a01b03166113e3611487565b6001600160a01b03161461142c576040805162461bcd60e51b81526020600482018190526024820152600080516020612e2e833981519152604482015290519081900360640190fd5b60105415611481576040805162461bcd60e51b815260206004820152601d60248201527f5374617274696e6720696e64657820697320616c726561647920736574000000604482015290519081900360640190fd5b43600f55565b600a546001600160a01b031690565b61149e611dcb565b6001600160a01b03166114af611487565b6001600160a01b0316146114f8576040805162461bcd60e51b81526020600482018190526024820152600080516020612e2e833981519152604482015290519081900360640190fd5b8051610ecc90600c906020840190612b5d565b60078054604080516020601f6002600019610100600188161502019095169490940493840181900481028201810190925282815260609390929091830182828015610c305780601f10610c0557610100808354040283529160200191610c30565b66b1a2bc2ec5000081565b61157f611dcb565b6001600160a01b0316826001600160a01b031614156115e5576040805162461bcd60e51b815260206004820152601960248201527f4552433732313a20617070726f766520746f2063616c6c657200000000000000604482015290519081900360640190fd5b80600560006115f2611dcb565b6001600160a01b03908116825260208083019390935260409182016000908120918716808252919093529120805460ff191692151592909217909155611636611dcb565b6001600160a01b03167f17307eab39ab6107e8899845ad3d59bd9653f200f220920489ca2b5937696c318360405180821515815260200191505060405180910390a35050565b61168d611687611dcb565b83611e62565b6116c85760405162461bcd60e51b8152600401808060200182810382526031815260200180612ec76031913960400191505060405180910390fd5b6116d4848484846120be565b50505050565b600d5481565b60606116eb82611dcf565b6117265760405162461bcd60e51b815260040180806020018281038252602f815260200180612e77602f913960400191505060405180910390fd5b60008281526008602090815260409182902080548351601f60026000196101006001861615020190931692909204918201849004840281018401909452808452606093928301828280156117bb5780601f10611790576101008083540402835291602001916117bb565b820191906000526020600020905b81548152906001019060200180831161179e57829003601f168201915b5050505050905060606117cc611248565b90508051600014156117e057509050610b9a565b8151156118a15780826040516020018083805190602001908083835b6020831061181b5780518252601f1990920191602091820191016117fc565b51815160209384036101000a600019018019909216911617905285519190930192850191508083835b602083106118635780518252601f199092019160209182019101611844565b6001836020036101000a0380198251168184511680821785525050505050509050019250505060405160208183030381529060405292505050610b9a565b806118ab85612110565b6040516020018083805190602001908083835b602083106118dd5780518252601f1990920191602091820191016118be565b51815160209384036101000a600019018019909216911617905285519190930192850191508083835b602083106119255780518252601f199092019160209182019101611906565b6001836020036101000a0380198251168184511680821785525050505050509050019250505060405160208183030381529060405292505050919050565b60105481565b600a54600160a01b900460ff166119b15760405162461bcd60e51b8152600401808060200182810382526028815260200180612c6b6028913960400191505060405180910390fd5b60198111156119f15760405162461bcd60e51b8152600401808060200182810382526021815260200180612d9e6021913960400191505060405180910390fd5b600d54611a0682611a00610ed0565b90612203565b1115611a435760405162461bcd60e51b8152600401808060200182810382526030815260200180612d6e6030913960400191505060405180910390fd5b34611a5566b1a2bc2ec500008361225d565b1115611aa8576040805162461bcd60e51b815260206004820152601f60248201527f45746865722076616c75652073656e74206973206e6f7420636f727265637400604482015290519081900360640190fd5b60005b81811015611ae3576000611abd610ed0565b9050600d54611aca610ed0565b1015611ada57611ada3382612052565b50600101611aab565b50600f54158015611b085750600d54611afa610ed0565b1480611b085750600e544210155b156111c25743600f5550565b600f5481565b600c8054604080516020601f6002600019610100600188161502019095169490940493840181900481028201810190925282815260609390929091830182828015610c305780601f10610c0557610100808354040283529160200191610c30565b6001600160a01b03918216600090815260056020908152604080832093909416825291909152205460ff1690565b60105415611bfe576040805162461bcd60e51b815260206004820152601d60248201527f5374617274696e6720696e64657820697320616c726561647920736574000000604482015290519081900360640190fd5b600f54611c52576040805162461bcd60e51b815260206004820181905260248201527f5374617274696e6720696e64657820626c6f636b206d75737420626520736574604482015290519081900360640190fd5b600d54600f544081611c6057fe5b06601055600f5460ff90611c759043906122b6565b1115611c9057600d5460001943014081611c8b57fe5b066010555b601054611ca957601054611ca5906001612203565b6010555b565b600a54600160a01b900460ff1681565b611cc3611dcb565b6001600160a01b0316611cd4611487565b6001600160a01b031614611d1d576040805162461bcd60e51b81526020600482018190526024820152600080516020612e2e833981519152604482015290519081900360640190fd5b6001600160a01b038116611d625760405162461bcd60e51b8152600401808060200182810382526026815260200180612c456026913960400191505060405180910390fd5b600a546040516001600160a01b038084169216907f8be0079c531659141344cd1fd0a4f28419497f9722a3daafe3b4186f6b6457e090600090a3600a805473ffffffffffffffffffffffffffffffffffffffff19166001600160a01b0392909216919091179055565b3390565b6000610ff1600283612313565b6000818152600460205260409020805473ffffffffffffffffffffffffffffffffffffffff19166001600160a01b0384169081179091558190611e1e826111c5565b6001600160a01b03167f8c5be1e5ebec7d5bd14f71427d1e84f3dd0314c0f7b2291e5b200ac8c7c3b92560405160405180910390a45050565b6000610ff18261231f565b6000611e6d82611dcf565b611ea85760405162461bcd60e51b815260040180806020018281038252602c815260200180612cb7602c913960400191505060405180910390fd5b6000611eb3836111c5565b9050806001600160a01b0316846001600160a01b03161480611eee5750836001600160a01b0316611ee384610cc8565b6001600160a01b0316145b80611efe5750611efe8185611b7b565b949350505050565b826001600160a01b0316611f19826111c5565b6001600160a01b031614611f5e5760405162461bcd60e51b8152600401808060200182810382526029815260200180612e4e6029913960400191505060405180910390fd5b6001600160a01b038216611fa35760405162461bcd60e51b8152600401808060200182810382526024815260200180612c936024913960400191505060405180910390fd5b611fae838383610e00565b611fb9600082611ddc565b6001600160a01b0383166000908152600160205260409020611fdb9082612323565b506001600160a01b0382166000908152600160205260409020611ffe908261232f565b5061200b6002828461233b565b5080826001600160a01b0316846001600160a01b03167fddf252ad1be2c89b69c2b068fc378daa952ba7f163c4a11628f55a4df523b3ef60405160405180910390a4505050565b610ecc828260405180602001604052806000815250612351565b6000610fee83836123a3565b60008080806120878686612407565b9097909650945050505050565b8051610ecc906009906020840190612b5d565b60006120b4848484612482565b90505b9392505050565b6120c9848484611f06565b6120d58484848461254c565b6116d45760405162461bcd60e51b8152600401808060200182810382526032815260200180612c136032913960400191505060405180910390fd5b60608161213557506040805180820190915260018152600360fc1b6020820152610b9a565b8160005b811561214d57600101600a82049150612139565b60608167ffffffffffffffff8111801561216657600080fd5b506040519080825280601f01601f191660200182016040528015612191576020820181803683370190505b50859350905060001982015b83156121fa57600a840660300160f81b828280600190039350815181106121c057fe5b60200101907effffffffffffffffffffffffffffffffffffffffffffffffffffffffffffff1916908160001a905350600a8404935061219d565b50949350505050565b600082820183811015610fee576040805162461bcd60e51b815260206004820152601b60248201527f536166654d6174683a206164646974696f6e206f766572666c6f770000000000604482015290519081900360640190fd5b60008261226c57506000610ff1565b8282028284828161227957fe5b0414610fee5760405162461bcd60e51b8152600401808060200182810382526021815260200180612de16021913960400191505060405180910390fd5b60008282111561230d576040805162461bcd60e51b815260206004820152601e60248201527f536166654d6174683a207375627472616374696f6e206f766572666c6f770000604482015290519081900360640190fd5b50900390565b6000610fee83836126de565b5490565b6000610fee83836126f6565b6000610fee83836127bc565b60006120b484846001600160a01b038516612806565b61235b838361289d565b612368600084848461254c565b610e005760405162461bcd60e51b8152600401808060200182810382526032815260200180612c136032913960400191505060405180910390fd5b815460009082106123e55760405162461bcd60e51b8152600401808060200182810382526022815260200180612bf16022913960400191505060405180910390fd5b8260000182815481106123f457fe5b9060005260206000200154905092915050565b81546000908190831061244b5760405162461bcd60e51b8152600401808060200182810382526022815260200180612dbf6022913960400191505060405180910390fd5b600084600001848154811061245c57fe5b906000526020600020906002020190508060000154816001015492509250509250929050565b6000828152600184016020526040812054828161251d5760405162461bcd60e51b81526004018080602001828103825283818151815260200191508051906020019080838360005b838110156124e25781810151838201526020016124ca565b50505050905090810190601f16801561250f5780820380516001836020036101000a031916815260200191505b509250505060405180910390fd5b5084600001600182038154811061253057fe5b9060005260206000209060020201600101549150509392505050565b6000612560846001600160a01b03166129cb565b61256c57506001611efe565b60606126a4630a85bd0160e11b612581611dcb565b88878760405160240180856001600160a01b03168152602001846001600160a01b0316815260200183815260200180602001828103825283818151815260200191508051906020019080838360005b838110156125e85781810151838201526020016125d0565b50505050905090810190601f1680156126155780820380516001836020036101000a031916815260200191505b5095505050505050604051602081830303815290604052907bffffffffffffffffffffffffffffffffffffffffffffffffffffffff19166020820180517bffffffffffffffffffffffffffffffffffffffffffffffffffffffff8381831617835250505050604051806060016040528060328152602001612c13603291396001600160a01b03881691906129d1565b905060008180602001905160208110156126bd57600080fd5b50516001600160e01b031916630a85bd0160e11b1492505050949350505050565b60009081526001919091016020526040902054151590565b600081815260018301602052604081205480156127b2578354600019808301919081019060009087908390811061272957fe5b906000526020600020015490508087600001848154811061274657fe5b60009182526020808320909101929092558281526001898101909252604090209084019055865487908061277657fe5b60019003818190600052602060002001600090559055866001016000878152602001908152602001600020600090556001945050505050610ff1565b6000915050610ff1565b60006127c883836126de565b6127fe57508154600181810184556000848152602080822090930184905584548482528286019093526040902091909155610ff1565b506000610ff1565b60008281526001840160205260408120548061286b5750506040805180820182528381526020808201848152865460018181018955600089815284812095516002909302909501918255915190820155865486845281880190925292909120556120b7565b8285600001600183038154811061287e57fe5b90600052602060002090600202016001018190555060009150506120b7565b6001600160a01b0382166128f8576040805162461bcd60e51b815260206004820181905260248201527f4552433732313a206d696e7420746f20746865207a65726f2061646472657373604482015290519081900360640190fd5b61290181611dcf565b15612953576040805162461bcd60e51b815260206004820152601c60248201527f4552433732313a20746f6b656e20616c7265616479206d696e74656400000000604482015290519081900360640190fd5b61295f60008383610e00565b6001600160a01b0382166000908152600160205260409020612981908261232f565b5061298e6002828461233b565b5060405181906001600160a01b038416906000907fddf252ad1be2c89b69c2b068fc378daa952ba7f163c4a11628f55a4df523b3ef908290a45050565b3b151590565b60606120b48484600085856129e5856129cb565b612a36576040805162461bcd60e51b815260206004820152601d60248201527f416464726573733a2063616c6c20746f206e6f6e2d636f6e7472616374000000604482015290519081900360640190fd5b60006060866001600160a01b031685876040518082805190602001908083835b60208310612a755780518252601f199092019160209182019101612a56565b6001836020036101000a03801982511681845116808217855250505050505090500191505060006040518083038185875af1925050503d8060008114612ad7576040519150601f19603f3d011682016040523d82523d6000602084013e612adc565b606091505b5091509150612aec828286612af7565b979650505050505050565b60608315612b065750816120b7565b825115612b165782518084602001fd5b60405162461bcd60e51b81526020600482018181528451602484015284518593919283926044019190850190808383600083156124e25781810151838201526020016124ca565b828054600181600116156101000203166002900490600052602060002090601f016020900481019282601f10612b9e57805160ff1916838001178555612bcb565b82800160010185558215612bcb579182015b82811115612bcb578251825591602001919060010190612bb0565b50612bd7929150612bdb565b5090565b5b80821115612bd75760008155600101612bdc56fe456e756d657261626c655365743a20696e646578206f7574206f6620626f756e64734552433732313a207472616e7366657220746f206e6f6e20455243373231526563656976657220696d706c656d656e7465724f776e61626c653a206e6577206f776e657220697320746865207a65726f206164647265737353616c65206d7573742062652061637469766520746f206d696e74204d722e20576869736b6572734552433732313a207472616e7366657220746f20746865207a65726f20616464726573734552433732313a206f70657261746f7220717565727920666f72206e6f6e6578697374656e7420746f6b656e4552433732313a20617070726f76652063616c6c6572206973206e6f74206f776e6572206e6f7220617070726f76656420666f7220616c6c4552433732313a2062616c616e636520717565727920666f7220746865207a65726f20616464726573734552433732313a206f776e657220717565727920666f72206e6f6e6578697374656e7420746f6b656e507572636861736520776f756c6420657863656564206d617820737570706c79206f66204d722e20576869736b65727343616e206f6e6c79206d696e7420323520746f6b656e7320617420612074696d65456e756d657261626c654d61703a20696e646578206f7574206f6620626f756e6473536166654d6174683a206d756c7469706c69636174696f6e206f766572666c6f774552433732313a20617070726f76656420717565727920666f72206e6f6e6578697374656e7420746f6b656e4f776e61626c653a2063616c6c6572206973206e6f7420746865206f776e65724552433732313a207472616e73666572206f6620746f6b656e2074686174206973206e6f74206f776e4552433732314d657461646174613a2055524920717565727920666f72206e6f6e6578697374656e7420746f6b656e4552433732313a20617070726f76616c20746f2063757272656e74206f776e65724552433732313a207472616e736665722063616c6c6572206973206e6f74206f776e6572206e6f7220617070726f76656450726f76656e616e63652068617320616c7265616479206265656e207365742c206e6f20646f2d6f7665727321a164736f6c6343000700000a697066733a2f2f6261666b7265696775676b3667776362776232357a766837656b76756e726475756969757932786c6535796e6d6570667763646a61336c6674627136306662363332313838626561306461346230353936653661363937653131666536326336386533376263633436663337386665653562636661616135653835",
  "linkReferences": {},
  "deployedLinkReferences": {}
}